{"abi":[{"type":"constructor","inputs":[{"name":"_owner","type":"address","internalType":"address"},{"name":"_orgsDistributor","type":"address","internalType":"address"},{"name":"_governanceDistributor","type":"address","internalType":"address"},{"name":"_couponCreator","type":"address","internalType":"address"},{"name":"_pauser","type":"address","internalType":"address"}],"stateMutability":"nonpayable"},{"type":"function","name":"COUPON_CREATOR_ROLE","inputs":[],"outputs":[{"name":"","type":"bytes32","internalType":"bytes32"}],"stateMutability":"view"},{"type":"function","name":"DEFAULT_ADMIN_ROLE","inputs":[],"outputs":[{"name":"","type":"bytes32","internalType":"bytes32"}],"stateMutability":"view"},{"type":"function","name":"GOVERNANCE_ALLOCATION","inputs":[],"outputs":[{"name":"","type":"uint256","internalType":"uint256"}],"stateMutability":"view"},{"type":"function","name":"MINTER_ROLE","inputs":[],"outputs":[{"name":"","type":"bytes32","internalType":"bytes32"}],"stateMutability":"view"},{"type":"function","name":"ORGS_ALLOCATION","inputs":[],"outputs":[{"name":"","type":"uint256","internalType":"uint256"}],"stateMutability":"view"},{"type":"function","name":"ORGS_DISTRIBUTOR_ROLE","inputs":[],"outputs":[{"name":"","type":"bytes32","internalType":"bytes32"}],"stateMutability":"view"},{"type":"function","name":"PAUSER_ROLE","inputs":[],"outputs":[{"name":"","type":"bytes32","internalType":"bytes32"}],"stateMutability":"view"},{"type":"function","name":"WELCOME_BONUS_ALLOCATION","inputs":[],"outputs":[{"name":"","type":"uint256","internalType":"uint256"}],"stateMutability":"view"},{"type":"function","name":"WELCOME_BONUS_AMOUNT","inputs":[],"outputs":[{"name":"","type":"uint256","internalType":"uint256"}],"stateMutability":"view"},{"type":"function","name":"allowance","inputs":[{"name":"owner","type":"address","internalType":"address"},{"name":"spender","type":"address","internalType":"address"}],"outputs":[{"name":"","type":"uint256","internalType":"uint256"}],"stateMutability":"view"},{"type":"function","name":"approve","inputs":[{"name":"spender","type":"address","internalType":"address"},{"name":"value","type":"uint256","internalType":"uint256"}],"outputs":[{"name":"","type":"bool","internalType":"bool"}],"stateMutability":"nonpayable"},{"type":"function","name":"balanceOf","inputs":[{"name":"account","type":"address","internalType":"address"}],"outputs":[{"name":"","type":"uint256","internalType":"uint256"}],"stateMutability":"view"},{"type":"function","name":"cap","inputs":[],"outputs":[{"name":"","type":"uint256","internalType":"uint256"}],"stateMutability":"view"},{"type":"function","name":"coupons","inputs":[{"name":"couponHash","type":"bytes32","internalType":"bytes32"}],"outputs":[{"name":"amount","type":"uint256","internalType":"uint256"}],"stateMutability":"view"},{"type":"function","name":"decimals","inputs":[],"outputs":[{"name":"","type":"uint8","internalType":"uint8"}],"stateMutability":"view"},{"type":"function","name":"distributeGovernance","inputs":[{"name":"to","type":"address","internalType":"address"},{"name":"amount","type":"uint256","internalType":"uint256"}],"outputs":[],"stateMutability":"nonpayable"},{"type":"function","name":"distributeOrgs","inputs":[{"name":"to","type":"address","internalType":"address"},{"name":"amount","type":"uint256","internalType":"uint256"}],"outputs":[],"stateMutability":"nonpayable"},{"type":"function","name":"distributeWelcomeBonus","inputs":[],"outputs":[],"stateMutability":"nonpayable"},{"type":"function","name":"getRemainingGovernanceAllocation","inputs":[],"outputs":[{"name":"","type":"uint256","internalType":"uint256"}],"stateMutability":"view"},{"type":"function","name":"getRemainingOrgsAllocation","inputs":[],"outputs":[{"name":"","type":"uint256","internalType":"uint256"}],"stateMutability":"view"},{"type":"function","name":"getRemainingWelcomeBonusAllocation","inputs":[],"outputs":[{"name":"","type":"uint256","internalType":"uint256"}],"stateMutability":"view"},{"type":"function","name":"getRoleAdmin","inputs":[{"name":"role","type":"bytes32","internalType":"bytes32"}],"outputs":[{"name":"","type":"bytes32","internalType":"bytes32"}],"stateMutability":"view"},{"type":"function","name":"governanceDistributed","inputs":[],"outputs":[{"name":"","type":"uint256","internalType":"uint256"}],"stateMutability":"view"},{"type":"function","name":"grantRole","inputs":[{"name":"role","type":"bytes32","internalType":"bytes32"},{"name":"account","type":"address","internalType":"address"}],"outputs":[],"stateMutability":"nonpayable"},{"type":"function","name":"hasReceivedWelcomeBonus","inputs":[{"name":"","type":"address","internalType":"address"}],"outputs":[{"name":"","type":"bool","internalType":"bool"}],"stateMutability":"view"},{"type":"function","name":"hasRole","inputs":[{"name":"role","type":"bytes32","internalType":"bytes32"},{"name":"account","type":"address","internalType":"address"}],"outputs":[{"name":"","type":"bool","internalType":"bool"}],"stateMutability":"view"},{"type":"function","name":"name","inputs":[],"outputs":[{"name":"","type":"string","internalType":"string"}],"stateMutability":"view"},{"type":"function","name":"orgsDistributed","inputs":[],"outputs":[{"name":"","type":"uint256","internalType":"uint256"}],"stateMutability":"view"},{"type":"function","name":"pause","inputs":[],"outputs":[],"stateMutability":"nonpayable"},{"type":"function","name":"paused","inputs":[],"outputs":[{"name":"","type":"bool","internalType":"bool"}],"stateMutability":"view"},{"type":"function","name":"redeem","inputs":[{"name":"couponCode","type":"string","internalType":"string"}],"outputs":[],"stateMutability":"nonpayable"},{"type":"function","name":"renounceRole","inputs":[{"name":"role","type":"bytes32","internalType":"bytes32"},{"name":"callerConfirmation","type":"address","internalType":"address"}],"outputs":[],"stateMutability":"nonpayable"},{"type":"function","name":"revokeRole","inputs":[{"name":"role","type":"bytes32","internalType":"bytes32"},{"name":"account","type":"address","internalType":"address"}],"outputs":[],"stateMutability":"nonpayable"},{"type":"function","name":"supportsInterface","inputs":[{"name":"interfaceId","type":"bytes4","internalType":"bytes4"}],"outputs":[{"name":"","type":"bool","internalType":"bool"}],"stateMutability":"view"},{"type":"function","name":"symbol","inputs":[],"outputs":[{"name":"","type":"string","internalType":"string"}],"stateMutability":"view"},{"type":"function","name":"totalSupply","inputs":[],"outputs":[{"name":"","type":"uint256","internalType":"uint256"}],"stateMutability":"view"},{"type":"function","name":"transfer","inputs":[{"name":"to","type":"address","internalType":"address"},{"name":"value","type":"uint256","internalType":"uint256"}],"outputs":[{"name":"","type":"bool","internalType":"bool"}],"stateMutability":"nonpayable"},{"type":"function","name":"transferFrom","inputs":[{"name":"from","type":"address","internalType":"address"},{"name":"to","type":"address","internalType":"address"},{"name":"value","type":"uint256","internalType":"uint256"}],"outputs":[{"name":"","type":"bool","internalType":"bool"}],"stateMutability":"nonpayable"},{"type":"function","name":"unpause","inputs":[],"outputs":[],"stateMutability":"nonpayable"},{"type":"function","name":"updateCoupon","inputs":[{"name":"couponHash","type":"bytes32","internalType":"bytes32"},{"name":"amount","type":"uint256","internalType":"uint256"}],"outputs":[],"stateMutability":"nonpayable"},{"type":"function","name":"welcomeBonusDistributed","inputs":[],"outputs":[{"name":"","type":"uint256","internalType":"uint256"}],"stateMutability":"view"},{"type":"event","name":"Approval","inputs":[{"name":"owner","type":"address","indexed":true,"internalType":"address"},{"name":"spender","type":"address","indexed":true,"internalType":"address"},{"name":"value","type":"uint256","indexed":false,"internalType":"uint256"}],"anonymous":false},{"type":"event","name":"CouponCreated","inputs":[{"name":"couponHash","type":"bytes32","indexed":true,"internalType":"bytes32"},{"name":"amount","type":"uint256","indexed":false,"internalType":"uint256"}],"anonymous":false},{"type":"event","name":"CouponRedeemed","inputs":[{"name":"couponHash","type":"bytes32","indexed":true,"internalType":"bytes32"},{"name":"user","type":"address","indexed":true,"internalType":"address"},{"name":"amount","type":"uint256","indexed":false,"internalType":"uint256"}],"anonymous":false},{"type":"event","name":"GovernanceDistributed","inputs":[{"name":"user","type":"address","indexed":true,"internalType":"address"},{"name":"amount","type":"uint256","indexed":false,"internalType":"uint256"}],"anonymous":false},{"type":"event","name":"OrgsDistributed","inputs":[{"name":"user","type":"address","indexed":true,"internalType":"address"},{"name":"amount","type":"uint256","indexed":false,"internalType":"uint256"}],"anonymous":false},{"type":"event","name":"Paused","inputs":[{"name":"account","type":"address","indexed":false,"internalType":"address"}],"anonymous":false},{"type":"event","name":"RoleAdminChanged","inputs":[{"name":"role","type":"bytes32","indexed":true,"internalType":"bytes32"},{"name":"previousAdminRole","type":"bytes32","indexed":true,"internalType":"bytes32"},{"name":"newAdminRole","type":"bytes32","indexed":true,"internalType":"bytes32"}],"anonymous":false},{"type":"event","name":"RoleGranted","inputs":[{"name":"role","type":"bytes32","indexed":true,"internalType":"bytes32"},{"name":"account","type":"address","indexed":true,"internalType":"address"},{"name":"sender","type":"address","indexed":true,"internalType":"address"}],"anonymous":false},{"type":"event","name":"RoleRevoked","inputs":[{"name":"role","type":"bytes32","indexed":true,"internalType":"bytes32"},{"name":"account","type":"address","indexed":true,"internalType":"address"},{"name":"sender","type":"address","indexed":true,"internalType":"address"}],"anonymous":false},{"type":"event","name":"Transfer","inputs":[{"name":"from","type":"address","indexed":true,"internalType":"address"},{"name":"to","type":"address","indexed":true,"internalType":"address"},{"name":"value","type":"uint256","indexed":false,"internalType":"uint256"}],"anonymous":false},{"type":"event","name":"Unpaused","inputs":[{"name":"account","type":"address","indexed":false,"internalType":"address"}],"anonymous":false},{"type":"event","name":"WelcomeBonusDistributed","inputs":[{"name":"user","type":"address","indexed":true,"internalType":"address"},{"name":"amount","type":"uint256","indexed":false,"internalType":"uint256"}],"anonymous":false},{"type":"error","name":"AccessControlBadConfirmation","inputs":[]},{"type":"error","name":"AccessControlUnauthorizedAccount","inputs":[{"name":"account","type":"address","internalType":"address"},{"name":"neededRole","type":"bytes32","internalType":"bytes32"}]},{"type":"error","name":"ERC20ExceededCap","inputs":[{"name":"increasedSupply","type":"uint256","internalType":"uint256"},{"name":"cap","type":"uint256","internalType":"uint256"}]},{"type":"error","name":"ERC20InsufficientAllowance","inputs":[{"name":"spender","type":"address","internalType":"address"},{"name":"allowance","type":"uint256","internalType":"uint256"},{"name":"needed","type":"uint256","internalType":"uint256"}]},{"type":"error","name":"ERC20InsufficientBalance","inputs":[{"name":"sender","type":"address","internalType":"address"},{"name":"balance","type":"uint256","internalType":"uint256"},{"name":"needed","type":"uint256","internalType":"uint256"}]},{"type":"error","name":"ERC20InvalidApprover","inputs":[{"name":"approver","type":"address","internalType":"address"}]},{"type":"error","name":"ERC20InvalidCap","inputs":[{"name":"cap","type":"uint256","internalType":"uint256"}]},{"type":"error","name":"ERC20InvalidReceiver","inputs":[{"name":"receiver","type":"address","internalType":"address"}]},{"type":"error","name":"ERC20InvalidSender","inputs":[{"name":"sender","type":"address","internalType":"address"}]},{"type":"error","name":"ERC20InvalidSpender","inputs":[{"name":"spender","type":"address","internalType":"address"}]},{"type":"error","name":"EnforcedPause","inputs":[]},{"type":"error","name":"ExpectedPause","inputs":[]}],"bytecode":{"object":"0x60a060405234801561000f575f5ffd5b506040516130de3803806130de833981810160405281019061003191906103b9565b6b033b2e3c9fd0803ce80000006040518060400160405280600a81526020017f434f494c20546f6b656e000000000000000000000000000000000000000000008152506040518060400160405280600481526020017f434f494c0000000000000000000000000000000000000000000000000000000081525081600390816100b9919061066d565b5080600490816100c9919061066d565b5050505f8103610110575f6040517f392e1e270000000000000000000000000000000000000000000000000000000081526004016101079190610775565b60405180910390fd5b80608081815250505061012b5f5f1b866101fa60201b60201c565b5061015c7f9f2df0fed2c77648de5860a4cc508cd0818c85b8b8a1ab4ceeef8d981c8956a6846101fa60201b60201c565b5061018d7f08f416612d02e10013c435e2a6d7369094cb367eb76f9ac4eeb18004e1939d27856101fa60201b60201c565b506101be7f65d7a28e3265b37a6474929f336521b332c1681b933f6cb9f3376673440d862a826101fa60201b60201c565b506101ef7ff580fe86bebb279e782cb2460ca4403b3785a54f8eb2cff7e9ea04191ff467f3836101fa60201b60201c565b50505050505061078e565b5f61020b83836102f060201b60201c565b6102e657600160055f8581526020019081526020015f205f015f8473ffffffffffffffffffffffffffffffffffffffff1673ffffffffffffffffffffffffffffffffffffffff1681526020019081526020015f205f6101000a81548160ff02191690831515021790555061028361035460201b60201c565b73ffffffffffffffffffffffffffffffffffffffff168273ffffffffffffffffffffffffffffffffffffffff16847f2f8788117e7eff1d82e926ec794901d17c78024a50270940304540a733656f0d60405160405180910390a4600190506102ea565b5f90505b92915050565b5f60055f8481526020019081526020015f205f015f8373ffffffffffffffffffffffffffffffffffffffff1673ffffffffffffffffffffffffffffffffffffffff1681526020019081526020015f205f9054906101000a900460ff16905092915050565b5f33905090565b5f5ffd5b5f73ffffffffffffffffffffffffffffffffffffffff82169050919050565b5f6103888261035f565b9050919050565b6103988161037e565b81146103a2575f5ffd5b50565b5f815190506103b38161038f565b92915050565b5f5f5f5f5f60a086880312156103d2576103d161035b565b5b5f6103df888289016103a5565b95505060206103f0888289016103a5565b9450506040610401888289016103a5565b9350506060610412888289016103a5565b9250506080610423888289016103a5565b9150509295509295909350565b5f81519050919050565b7f4e487b71000000000000000000000000000000000000000000000000000000005f52604160045260245ffd5b7f4e487b71000000000000000000000000000000000000000000000000000000005f52602260045260245ffd5b5f60028204905060018216806104ab57607f821691505b6020821081036104be576104bd610467565b5b50919050565b5f819050815f5260205f209050919050565b5f6020601f8301049050919050565b5f82821b905092915050565b5f600883026105207fffffffffffffffffffffffffffffffffffffffffffffffffffffffffffffffff826104e5565b61052a86836104e5565b95508019841693508086168417925050509392505050565b5f819050919050565b5f819050919050565b5f61056e61056961056484610542565b61054b565b610542565b9050919050565b5f819050919050565b61058783610554565b61059b61059382610575565b8484546104f1565b825550505050565b5f5f905090565b6105b26105a3565b6105bd81848461057e565b505050565b5b818110156105e0576105d55f826105aa565b6001810190506105c3565b5050565b601f821115610625576105f6816104c4565b6105ff846104d6565b8101602085101561060e578190505b61062261061a856104d6565b8301826105c2565b50505b505050565b5f82821c905092915050565b5f6106455f198460080261062a565b1980831691505092915050565b5f61065d8383610636565b9150826002028217905092915050565b61067682610430565b67ffffffffffffffff81111561068f5761068e61043a565b5b6106998254610494565b6106a48282856105e4565b5f60209050601f8311600181146106d5575f84156106c3578287015190505b6106cd8582610652565b865550610734565b601f1984166106e3866104c4565b5f5b8281101561070a578489015182556001820191506020850194506020810190506106e5565b868310156107275784890151610723601f891682610636565b8355505b6001600288020188555050505b505050505050565b5f819050919050565b5f61075f61075a6107558461073c565b61054b565b610542565b9050919050565b61076f81610745565b82525050565b5f6020820190506107885f830184610766565b92915050565b6080516129386107a65f395f610af701526129385ff3fe608060405234801561000f575f5ffd5b5060043610610251575f3560e01c8063742b20cd11610144578063a9059cbb116100c1578063d547741f11610085578063d547741f146106dd578063d90b03f4146106f9578063dd62ed3e14610717578063e63ab1e914610747578063e74b5a3f14610765578063f6c18bc11461076f57610251565b8063a9059cbb14610635578063a97c0e7d14610665578063b9662adb14610683578063cdc731e8146106a1578063d5391393146106bf57610251565b80638edb6dff116101085780638edb6dff1461058f57806391d14854146105ab57806395d89b41146105db578063a217fddf146105f9578063a59d5f1c1461061757610251565b8063742b20cd146104fd5780637964df661461052d5780638044bef31461054b5780638456cb59146105675780638c2752611461057157610251565b80632f2ff15d116101d25780635c975abb116101965780635c975abb146104435780636060ed1f14610461578063680128751461049157806370a08231146104af57806370ffcb84146104df57610251565b80632f2ff15d146103c5578063313ce567146103e1578063355274ea146103ff57806336568abe1461041d5780633f4ba83a1461043957610251565b80631222c25a116102195780631222c25a1461030f57806318160ddd1461032b57806323b872dd14610349578063248a9ca3146103795780632e0ff3a6146103a957610251565b806301f746d31461025557806301ffc9a71461027357806306fdde03146102a3578063095ea7b3146102c15780630fb8506f146102f1575b5f5ffd5b61025d61078d565b60405161026a9190611f57565b60405180910390f35b61028d60048036038101906102889190611fcd565b61079a565b60405161029a9190612012565b60405180910390f35b6102ab610813565b6040516102b8919061209b565b60405180910390f35b6102db60048036038101906102d6919061213f565b6108a3565b6040516102e89190612012565b60405180910390f35b6102f96108c5565b6040516103069190611f57565b60405180910390f35b610329600480360381019061032491906121de565b6108cb565b005b6103336109b5565b6040516103409190611f57565b60405180910390f35b610363600480360381019061035e9190612229565b6109be565b6040516103709190612012565b60405180910390f35b610393600480360381019061038e91906122ac565b6109ec565b6040516103a091906122e6565b60405180910390f35b6103c360048036038101906103be91906122ff565b610a09565b005b6103df60048036038101906103da919061233d565b610aca565b005b6103e9610aec565b6040516103f69190612396565b60405180910390f35b610407610af4565b6040516104149190611f57565b60405180910390f35b6104376004803603810190610432919061233d565b610b1b565b005b610441610b96565b005b61044b610bcb565b6040516104589190612012565b60405180910390f35b61047b600480360381019061047691906123af565b610be0565b6040516104889190612012565b60405180910390f35b610499610bfd565b6040516104a69190611f57565b60405180910390f35b6104c960048036038101906104c491906123af565b610c03565b6040516104d69190611f57565b60405180910390f35b6104e7610c48565b6040516104f49190611f57565b60405180910390f35b610517600480360381019061051291906122ac565b610c67565b6040516105249190611f57565b60405180910390f35b610535610c7c565b6040516105429190611f57565b60405180910390f35b6105656004803603810190610560919061213f565b610c8b565b005b61056f610e32565b005b610579610e67565b60405161058691906122e6565b60405180910390f35b6105a960048036038101906105a4919061213f565b610e8b565b005b6105c560048036038101906105c0919061233d565b611033565b6040516105d29190612012565b60405180910390f35b6105e3611097565b6040516105f0919061209b565b60405180910390f35b610601611127565b60405161060e91906122e6565b60405180910390f35b61061f61112d565b60405161062c91906122e6565b60405180910390f35b61064f600480360381019061064a919061213f565b611151565b60405161065c9190612012565b60405180910390f35b61066d611173565b60405161067a9190611f57565b60405180910390f35b61068b611192565b6040516106989190611f57565b60405180910390f35b6106a96111a1565b6040516106b69190611f57565b60405180910390f35b6106c76111b1565b6040516106d491906122e6565b60405180910390f35b6106f760048036038101906106f2919061233d565b6111d5565b005b6107016111f7565b60405161070e9190611f57565b60405180910390f35b610731600480360381019061072c91906123da565b611217565b60405161073e9190611f57565b60405180910390f35b61074f611299565b60405161075c91906122e6565b60405180910390f35b61076d6112bd565b005b610777611495565b6040516107849190611f57565b60405180910390f35b680579a814e10a74000081565b5f7f7965db0b000000000000000000000000000000000000000000000000000000007bffffffffffffffffffffffffffffffffffffffffffffffffffffffff1916827bffffffffffffffffffffffffffffffffffffffffffffffffffffffff1916148061080c575061080b8261149b565b5b9050919050565b60606003805461082290612445565b80601f016020809104026020016040519081016040528092919081815260200182805461084e90612445565b80156108995780601f1061087057610100808354040283529160200191610899565b820191905f5260205f20905b81548152906001019060200180831161087c57829003601f168201915b5050505050905090565b5f5f6108ad611504565b90506108ba81858561150b565b600191505092915050565b60075481565b6108d361151d565b5f82826040516020016108e79291906124b1565b6040516020818303038152906040528051906020012090505f600b5f8381526020019081526020015f205490505f8103610956576040517f08c379a000000000000000000000000000000000000000000000000000000000815260040161094d90612513565b60405180910390fd5b610960338261155e565b3373ffffffffffffffffffffffffffffffffffffffff16827f8083d88ea5a995833cbe2b37d015facc94151b7aff3254d0c9c6217174b8c50f836040516109a79190611f57565b60405180910390a350505050565b5f600254905090565b5f5f6109c8611504565b90506109d58582856115dd565b6109e0858585611670565b60019150509392505050565b5f60055f8381526020019081526020015f20600101549050919050565b7ff580fe86bebb279e782cb2460ca4403b3785a54f8eb2cff7e9ea04191ff467f3610a3381611760565b5f5f1b8303610a77576040517f08c379a0000000000000000000000000000000000000000000000000000000008152600401610a6e90612513565b60405180910390fd5b81600b5f8581526020019081526020015f2081905550827ff708d935b68aff5534381d023ef1944a0afd8a75bbc0fb5f48dfc8897b07ed6c83604051610abd9190611f57565b60405180910390a2505050565b610ad3826109ec565b610adc81611760565b610ae68383611774565b50505050565b5f6012905090565b5f7f0000000000000000000000000000000000000000000000000000000000000000905090565b610b23611504565b73ffffffffffffffffffffffffffffffffffffffff168173ffffffffffffffffffffffffffffffffffffffff1614610b87576040517f6697b23200000000000000000000000000000000000000000000000000000000815260040160405180910390fd5b610b91828261185e565b505050565b7f65d7a28e3265b37a6474929f336521b332c1681b933f6cb9f3376673440d862a610bc081611760565b610bc8611948565b50565b5f60065f9054906101000a900460ff16905090565b600a602052805f5260405f205f915054906101000a900460ff1681565b60095481565b5f5f5f8373ffffffffffffffffffffffffffffffffffffffff1673ffffffffffffffffffffffffffffffffffffffff1681526020019081526020015f20549050919050565b5f6007546af8277896582678ac000000610c62919061255e565b905090565b600b602052805f5260405f205f915090505481565b6af8277896582678ac00000081565b7f08f416612d02e10013c435e2a6d7369094cb367eb76f9ac4eeb18004e1939d27610cb581611760565b610cbd61151d565b5f73ffffffffffffffffffffffffffffffffffffffff168373ffffffffffffffffffffffffffffffffffffffff1603610d2b576040517f08c379a0000000000000000000000000000000000000000000000000000000008152600401610d22906125db565b60405180910390fd5b5f8203610d6d576040517f08c379a0000000000000000000000000000000000000000000000000000000008152600401610d6490612643565b60405180910390fd5b8160085f828254610d7e9190612661565b925050819055506aa56fa5b99019a5c80000006008541115610dd5576040517f08c379a0000000000000000000000000000000000000000000000000000000008152600401610dcc906126de565b60405180910390fd5b610ddf838361155e565b8273ffffffffffffffffffffffffffffffffffffffff167f883390bbfca4a842a06bc2ca55d4b3e2831dfc1b8b519125727efeae9534428883604051610e259190611f57565b60405180910390a2505050565b7f65d7a28e3265b37a6474929f336521b332c1681b933f6cb9f3376673440d862a610e5c81611760565b610e646119a9565b50565b7ff580fe86bebb279e782cb2460ca4403b3785a54f8eb2cff7e9ea04191ff467f381565b7f9f2df0fed2c77648de5860a4cc508cd0818c85b8b8a1ab4ceeef8d981c8956a6610eb581611760565b610ebd61151d565b5f73ffffffffffffffffffffffffffffffffffffffff168373ffffffffffffffffffffffffffffffffffffffff1603610f2b576040517f08c379a0000000000000000000000000000000000000000000000000000000008152600401610f22906125db565b60405180910390fd5b5f8203610f6d576040517f08c379a0000000000000000000000000000000000000000000000000000000008152600401610f6490612643565b60405180910390fd5b8160095f828254610f7e9190612661565b925050819055506b019d971e4fe8401e740000006009541115610fd6576040517f08c379a0000000000000000000000000000000000000000000000000000000008152600401610fcd90612746565b60405180910390fd5b610fe0838361155e565b8273ffffffffffffffffffffffffffffffffffffffff167f70c37ad312f31a6dfce3aa773c5bfc279538aefc77e31ccab85cebacdbf46dba836040516110269190611f57565b60405180910390a2505050565b5f60055f8481526020019081526020015f205f015f8373ffffffffffffffffffffffffffffffffffffffff1673ffffffffffffffffffffffffffffffffffffffff1681526020019081526020015f205f9054906101000a900460ff16905092915050565b6060600480546110a690612445565b80601f01602080910402602001604051908101604052809291908181526020018280546110d290612445565b801561111d5780601f106110f45761010080835404028352916020019161111d565b820191905f5260205f20905b81548152906001019060200180831161110057829003601f168201915b5050505050905090565b5f5f1b81565b7f08f416612d02e10013c435e2a6d7369094cb367eb76f9ac4eeb18004e1939d2781565b5f5f61115b611504565b9050611168818585611670565b600191505092915050565b5f6008546aa56fa5b99019a5c800000061118d919061255e565b905090565b6aa56fa5b99019a5c800000081565b6b019d971e4fe8401e7400000081565b7f9f2df0fed2c77648de5860a4cc508cd0818c85b8b8a1ab4ceeef8d981c8956a681565b6111de826109ec565b6111e781611760565b6111f1838361185e565b50505050565b5f6009546b019d971e4fe8401e74000000611212919061255e565b905090565b5f60015f8473ffffffffffffffffffffffffffffffffffffffff1673ffffffffffffffffffffffffffffffffffffffff1681526020019081526020015f205f8373ffffffffffffffffffffffffffffffffffffffff1673ffffffffffffffffffffffffffffffffffffffff1681526020019081526020015f2054905092915050565b7f65d7a28e3265b37a6474929f336521b332c1681b933f6cb9f3376673440d862a81565b6112c561151d565b600a5f3373ffffffffffffffffffffffffffffffffffffffff1673ffffffffffffffffffffffffffffffffffffffff1681526020019081526020015f205f9054906101000a900460ff161561134f576040517f08c379a0000000000000000000000000000000000000000000000000000000008152600401611346906127d4565b60405180910390fd5b6af8277896582678ac000000680579a814e10a7400006007546113729190612661565b11156113b3576040517f08c379a00000000000000000000000000000000000000000000000000000000081526004016113aa90612862565b60405180910390fd5b6001600a5f3373ffffffffffffffffffffffffffffffffffffffff1673ffffffffffffffffffffffffffffffffffffffff1681526020019081526020015f205f6101000a81548160ff021916908315150217905550680579a814e10a74000060075f8282546114229190612661565b9250508190555061143c33680579a814e10a74000061155e565b3373ffffffffffffffffffffffffffffffffffffffff167fc20a7ccb9db4c99e2af875d7d787362779b792db92e6e6a4ef970c7e33b39366680579a814e10a74000060405161148b9190611f57565b60405180910390a2565b60085481565b5f7f01ffc9a7000000000000000000000000000000000000000000000000000000007bffffffffffffffffffffffffffffffffffffffffffffffffffffffff1916827bffffffffffffffffffffffffffffffffffffffffffffffffffffffff1916149050919050565b5f33905090565b6115188383836001611a0b565b505050565b611525610bcb565b1561155c576040517fd93c066500000000000000000000000000000000000000000000000000000000815260040160405180910390fd5b565b5f73ffffffffffffffffffffffffffffffffffffffff168273ffffffffffffffffffffffffffffffffffffffff16036115ce575f6040517fec442f050000000000000000000000000000000000000000000000000000000081526004016115c5919061288f565b60405180910390fd5b6115d95f8383611bda565b5050565b5f6115e88484611217565b90507fffffffffffffffffffffffffffffffffffffffffffffffffffffffffffffffff81101561166a578181101561165b578281836040517ffb8f41b2000000000000000000000000000000000000000000000000000000008152600401611652939291906128a8565b60405180910390fd5b61166984848484035f611a0b565b5b50505050565b5f73ffffffffffffffffffffffffffffffffffffffff168373ffffffffffffffffffffffffffffffffffffffff16036116e0575f6040517f96c6fd1e0000000000000000000000000000000000000000000000000000000081526004016116d7919061288f565b60405180910390fd5b5f73ffffffffffffffffffffffffffffffffffffffff168273ffffffffffffffffffffffffffffffffffffffff1603611750575f6040517fec442f05000000000000000000000000000000000000000000000000000000008152600401611747919061288f565b60405180910390fd5b61175b838383611bda565b505050565b6117718161176c611504565b611bf2565b50565b5f61177f8383611033565b61185457600160055f8581526020019081526020015f205f015f8473ffffffffffffffffffffffffffffffffffffffff1673ffffffffffffffffffffffffffffffffffffffff1681526020019081526020015f205f6101000a81548160ff0219169083151502179055506117f1611504565b73ffffffffffffffffffffffffffffffffffffffff168273ffffffffffffffffffffffffffffffffffffffff16847f2f8788117e7eff1d82e926ec794901d17c78024a50270940304540a733656f0d60405160405180910390a460019050611858565b5f90505b92915050565b5f6118698383611033565b1561193e575f60055f8581526020019081526020015f205f015f8473ffffffffffffffffffffffffffffffffffffffff1673ffffffffffffffffffffffffffffffffffffffff1681526020019081526020015f205f6101000a81548160ff0219169083151502179055506118db611504565b73ffffffffffffffffffffffffffffffffffffffff168273ffffffffffffffffffffffffffffffffffffffff16847ff6391f5c32d9c69d2a47ea670b442974b53935d1edc7fd64eb21e047a839171b60405160405180910390a460019050611942565b5f90505b92915050565b611950611c43565b5f60065f6101000a81548160ff0219169083151502179055507f5db9ee0a495bf2e6ff9c91a7834c1ba4fdd244a5e8aa4e537bd38aeae4b073aa611992611504565b60405161199f919061288f565b60405180910390a1565b6119b161151d565b600160065f6101000a81548160ff0219169083151502179055507f62e78cea01bee320cd4e420270b5ea74000d11b0c9f74754ebdbfc544b05a2586119f4611504565b604051611a01919061288f565b60405180910390a1565b5f73ffffffffffffffffffffffffffffffffffffffff168473ffffffffffffffffffffffffffffffffffffffff1603611a7b575f6040517fe602df05000000000000000000000000000000000000000000000000000000008152600401611a72919061288f565b60405180910390fd5b5f73ffffffffffffffffffffffffffffffffffffffff168373ffffffffffffffffffffffffffffffffffffffff1603611aeb575f6040517f94280d62000000000000000000000000000000000000000000000000000000008152600401611ae2919061288f565b60405180910390fd5b8160015f8673ffffffffffffffffffffffffffffffffffffffff1673ffffffffffffffffffffffffffffffffffffffff1681526020019081526020015f205f8573ffffffffffffffffffffffffffffffffffffffff1673ffffffffffffffffffffffffffffffffffffffff1681526020019081526020015f20819055508015611bd4578273ffffffffffffffffffffffffffffffffffffffff168473ffffffffffffffffffffffffffffffffffffffff167f8c5be1e5ebec7d5bd14f71427d1e84f3dd0314c0f7b2291e5b200ac8c7c3b92584604051611bcb9190611f57565b60405180910390a35b50505050565b611be261151d565b611bed838383611c83565b505050565b611bfc8282611033565b611c3f5780826040517fe2517d3f000000000000000000000000000000000000000000000000000000008152600401611c369291906128dd565b60405180910390fd5b5050565b611c4b610bcb565b611c81576040517f8dfc202b00000000000000000000000000000000000000000000000000000000815260040160405180910390fd5b565b611c8e838383611d26565b5f73ffffffffffffffffffffffffffffffffffffffff168373ffffffffffffffffffffffffffffffffffffffff1603611d21575f611cca610af4565b90505f611cd56109b5565b905081811115611d1e5780826040517f9e79f854000000000000000000000000000000000000000000000000000000008152600401611d15929190612904565b60405180910390fd5b50505b505050565b5f73ffffffffffffffffffffffffffffffffffffffff168373ffffffffffffffffffffffffffffffffffffffff1603611d76578060025f828254611d6a9190612661565b92505081905550611e44565b5f5f5f8573ffffffffffffffffffffffffffffffffffffffff1673ffffffffffffffffffffffffffffffffffffffff1681526020019081526020015f2054905081811015611dff578381836040517fe450d38c000000000000000000000000000000000000000000000000000000008152600401611df6939291906128a8565b60405180910390fd5b8181035f5f8673ffffffffffffffffffffffffffffffffffffffff1673ffffffffffffffffffffffffffffffffffffffff1681526020019081526020015f2081905550505b5f73ffffffffffffffffffffffffffffffffffffffff168273ffffffffffffffffffffffffffffffffffffffff1603611e8b578060025f8282540392505081905550611ed5565b805f5f8473ffffffffffffffffffffffffffffffffffffffff1673ffffffffffffffffffffffffffffffffffffffff1681526020019081526020015f205f82825401925050819055505b8173ffffffffffffffffffffffffffffffffffffffff168373ffffffffffffffffffffffffffffffffffffffff167fddf252ad1be2c89b69c2b068fc378daa952ba7f163c4a11628f55a4df523b3ef83604051611f329190611f57565b60405180910390a3505050565b5f819050919050565b611f5181611f3f565b82525050565b5f602082019050611f6a5f830184611f48565b92915050565b5f5ffd5b5f5ffd5b5f7fffffffff0000000000000000000000000000000000000000000000000000000082169050919050565b611fac81611f78565b8114611fb6575f5ffd5b50565b5f81359050611fc781611fa3565b92915050565b5f60208284031215611fe257611fe1611f70565b5b5f611fef84828501611fb9565b91505092915050565b5f8115159050919050565b61200c81611ff8565b82525050565b5f6020820190506120255f830184612003565b92915050565b5f81519050919050565b5f82825260208201905092915050565b8281835e5f83830152505050565b5f601f19601f8301169050919050565b5f61206d8261202b565b6120778185612035565b9350612087818560208601612045565b61209081612053565b840191505092915050565b5f6020820190508181035f8301526120b38184612063565b905092915050565b5f73ffffffffffffffffffffffffffffffffffffffff82169050919050565b5f6120e4826120bb565b9050919050565b6120f4816120da565b81146120fe575f5ffd5b50565b5f8135905061210f816120eb565b92915050565b61211e81611f3f565b8114612128575f5ffd5b50565b5f8135905061213981612115565b92915050565b5f5f6040838503121561215557612154611f70565b5b5f61216285828601612101565b92505060206121738582860161212b565b9150509250929050565b5f5ffd5b5f5ffd5b5f5ffd5b5f5f83601f84011261219e5761219d61217d565b5b8235905067ffffffffffffffff8111156121bb576121ba612181565b5b6020830191508360018202830111156121d7576121d6612185565b5b9250929050565b5f5f602083850312156121f4576121f3611f70565b5b5f83013567ffffffffffffffff81111561221157612210611f74565b5b61221d85828601612189565b92509250509250929050565b5f5f5f606084860312156122405761223f611f70565b5b5f61224d86828701612101565b935050602061225e86828701612101565b925050604061226f8682870161212b565b9150509250925092565b5f819050919050565b61228b81612279565b8114612295575f5ffd5b50565b5f813590506122a681612282565b92915050565b5f602082840312156122c1576122c0611f70565b5b5f6122ce84828501612298565b91505092915050565b6122e081612279565b82525050565b5f6020820190506122f95f8301846122d7565b92915050565b5f5f6040838503121561231557612314611f70565b5b5f61232285828601612298565b92505060206123338582860161212b565b9150509250929050565b5f5f6040838503121561235357612352611f70565b5b5f61236085828601612298565b925050602061237185828601612101565b9150509250929050565b5f60ff82169050919050565b6123908161237b565b82525050565b5f6020820190506123a95f830184612387565b92915050565b5f602082840312156123c4576123c3611f70565b5b5f6123d184828501612101565b91505092915050565b5f5f604083850312156123f0576123ef611f70565b5b5f6123fd85828601612101565b925050602061240e85828601612101565b9150509250929050565b7f4e487b71000000000000000000000000000000000000000000000000000000005f52602260045260245ffd5b5f600282049050600182168061245c57607f821691505b60208210810361246f5761246e612418565b5b50919050565b5f81905092915050565b828183375f83830152505050565b5f6124988385612475565b93506124a583858461247f565b82840190509392505050565b5f6124bd82848661248d565b91508190509392505050565b7f496e76616c696420636f75706f6e0000000000000000000000000000000000005f82015250565b5f6124fd600e83612035565b9150612508826124c9565b602082019050919050565b5f6020820190508181035f83015261252a816124f1565b9050919050565b7f4e487b71000000000000000000000000000000000000000000000000000000005f52601160045260245ffd5b5f61256882611f3f565b915061257383611f3f565b925082820390508181111561258b5761258a612531565b5b92915050565b7f496e76616c6964206164647265737300000000000000000000000000000000005f82015250565b5f6125c5600f83612035565b91506125d082612591565b602082019050919050565b5f6020820190508181035f8301526125f2816125b9565b9050919050565b7f496e76616c696420616d6f756e740000000000000000000000000000000000005f82015250565b5f61262d600e83612035565b9150612638826125f9565b602082019050919050565b5f6020820190508181035f83015261265a81612621565b9050919050565b5f61266b82611f3f565b915061267683611f3f565b925082820190508082111561268e5761268d612531565b5b92915050565b7f4f72677320616c6c6f636174696f6e20657863656564656400000000000000005f82015250565b5f6126c8601883612035565b91506126d382612694565b602082019050919050565b5f6020820190508181035f8301526126f5816126bc565b9050919050565b7f476f7665726e616e636520616c6c6f636174696f6e20657863656564656400005f82015250565b5f612730601e83612035565b915061273b826126fc565b602082019050919050565b5f6020820190508181035f83015261275d81612724565b9050919050565b7f5573657220616c72656164792072656365697665642077656c636f6d6520626f5f8201527f6e75730000000000000000000000000000000000000000000000000000000000602082015250565b5f6127be602383612035565b91506127c982612764565b604082019050919050565b5f6020820190508181035f8301526127eb816127b2565b9050919050565b7f57656c636f6d6520626f6e757320616c6c6f636174696f6e20657863656564655f8201527f6400000000000000000000000000000000000000000000000000000000000000602082015250565b5f61284c602183612035565b9150612857826127f2565b604082019050919050565b5f6020820190508181035f83015261287981612840565b9050919050565b612889816120da565b82525050565b5f6020820190506128a25f830184612880565b92915050565b5f6060820190506128bb5f830186612880565b6128c86020830185611f48565b6128d56040830184611f48565b949350505050565b5f6040820190506128f05f830185612880565b6128fd60208301846122d7565b9392505050565b5f6040820190506129175f830185611f48565b6129246020830184611f48565b939250505056fea164736f6c634300081c000a","linkReferences":{}},"methodIdentifiers":{"COUPON_CREATOR_ROLE()":"8c275261","DEFAULT_ADMIN_ROLE()":"a217fddf","GOVERNANCE_ALLOCATION()":"cdc731e8","MINTER_ROLE()":"d5391393","ORGS_ALLOCATION()":"b9662adb","ORGS_DISTRIBUTOR_ROLE()":"a59d5f1c","PAUSER_ROLE()":"e63ab1e9","WELCOME_BONUS_ALLOCATION()":"7964df66","WELCOME_BONUS_AMOUNT()":"01f746d3","allowance(address,address)":"dd62ed3e","approve(address,uint256)":"095ea7b3","balanceOf(address)":"70a08231","cap()":"355274ea","coupons(bytes32)":"742b20cd","decimals()":"313ce567","distributeGovernance(address,uint256)":"8edb6dff","distributeOrgs(address,uint256)":"8044bef3","distributeWelcomeBonus()":"e74b5a3f","getRemainingGovernanceAllocation()":"d90b03f4","getRemainingOrgsAllocation()":"a97c0e7d","getRemainingWelcomeBonusAllocation()":"70ffcb84","getRoleAdmin(bytes32)":"248a9ca3","governanceDistributed()":"68012875","grantRole(bytes32,address)":"2f2ff15d","hasReceivedWelcomeBonus(address)":"6060ed1f","hasRole(bytes32,address)":"91d14854","name()":"06fdde03","orgsDistributed()":"f6c18bc1","pause()":"8456cb59","paused()":"5c975abb","redeem(string)":"1222c25a","renounceRole(bytes32,address)":"36568abe","revokeRole(bytes32,address)":"d547741f","supportsInterface(bytes4)":"01ffc9a7","symbol()":"95d89b41","totalSupply()":"18160ddd","transfer(address,uint256)":"a9059cbb","transferFrom(address,address,uint256)":"23b872dd","unpause()":"3f4ba83a","updateCoupon(bytes32,uint256)":"2e0ff3a6","welcomeBonusDistributed()":"0fb8506f"},"id":27}